{
  "_format": "hh-sol-artifact-1",
  "contractName": "DAO",
  "sourceName": "contracts/DAO.sol",
  "abi": [
    {
      "inputs": [
        {
          "internalType": "address",
          "name": "_governanceToken",
          "type": "address"
        }
      ],
      "stateMutability": "nonpayable",
      "type": "constructor"
    },
    {
      "inputs": [
        {
          "internalType": "address",
          "name": "owner",
          "type": "address"
        }
      ],
      "name": "OwnableInvalidOwner",
      "type": "error"
    },
    {
      "inputs": [
        {
          "internalType": "address",
          "name": "account",
          "type": "address"
        }
      ],
      "name": "OwnableUnauthorizedAccount",
      "type": "error"
    },
    {
      "anonymous": false,
      "inputs": [
        {
          "indexed": true,
          "internalType": "uint256",
          "name": "campaignId",
          "type": "uint256"
        },
        {
          "indexed": false,
          "internalType": "address",
          "name": "creator",
          "type": "address"
        },
        {
          "indexed": false,
          "internalType": "string",
          "name": "description",
          "type": "string"
        },
        {
          "indexed": false,
          "internalType": "uint256",
          "name": "fundingGoal",
          "type": "uint256"
        },
        {
          "indexed": false,
          "internalType": "uint256",
          "name": "deadline",
          "type": "uint256"
        }
      ],
      "name": "CampaignCreated",
      "type": "event"
    },
    {
      "anonymous": false,
      "inputs": [
        {
          "indexed": true,
          "internalType": "uint256",
          "name": "campaignId",
          "type": "uint256"
        },
        {
          "indexed": false,
          "internalType": "bool",
          "name": "success",
          "type": "bool"
        }
      ],
      "name": "CampaignFinalized",
      "type": "event"
    },
    {
      "anonymous": false,
      "inputs": [
        {
          "indexed": true,
          "internalType": "uint256",
          "name": "campaignId",
          "type": "uint256"
        },
        {
          "indexed": false,
          "internalType": "address",
          "name": "contributor",
          "type": "address"
        },
        {
          "indexed": false,
          "internalType": "uint256",
          "name": "amount",
          "type": "uint256"
        }
      ],
      "name": "Contributed",
      "type": "event"
    },
    {
      "anonymous": false,
      "inputs": [
        {
          "indexed": true,
          "internalType": "address",
          "name": "previousOwner",
          "type": "address"
        },
        {
          "indexed": true,
          "internalType": "address",
          "name": "newOwner",
          "type": "address"
        }
      ],
      "name": "OwnershipTransferred",
      "type": "event"
    },
    {
      "anonymous": false,
      "inputs": [
        {
          "indexed": true,
          "internalType": "uint256",
          "name": "campaignId",
          "type": "uint256"
        },
        {
          "indexed": false,
          "internalType": "address",
          "name": "voter",
          "type": "address"
        },
        {
          "indexed": false,
          "internalType": "bool",
          "name": "support",
          "type": "bool"
        }
      ],
      "name": "Voted",
      "type": "event"
    },
    {
      "anonymous": false,
      "inputs": [
        {
          "indexed": true,
          "internalType": "uint256",
          "name": "campaignId",
          "type": "uint256"
        },
        {
          "indexed": false,
          "internalType": "address",
          "name": "beneficiary",
          "type": "address"
        },
        {
          "indexed": false,
          "internalType": "uint256",
          "name": "amount",
          "type": "uint256"
        }
      ],
      "name": "Withdrawn",
      "type": "event"
    },
    {
      "inputs": [
        {
          "internalType": "uint256",
          "name": "",
          "type": "uint256"
        }
      ],
      "name": "campaigns",
      "outputs": [
        {
          "internalType": "address",
          "name": "creator",
          "type": "address"
        },
        {
          "internalType": "string",
          "name": "description",
          "type": "string"
        },
        {
          "internalType": "uint256",
          "name": "fundingGoal",
          "type": "uint256"
        },
        {
          "internalType": "uint256",
          "name": "deadline",
          "type": "uint256"
        },
        {
          "internalType": "uint256",
          "name": "totalContributions",
          "type": "uint256"
        },
        {
          "internalType": "address",
          "name": "beneficiary",
          "type": "address"
        },
        {
          "internalType": "uint256",
          "name": "isWithdrawn",
          "type": "uint256"
        },
        {
          "internalType": "uint256",
          "name": "votesFor",
          "type": "uint256"
        },
        {
          "internalType": "uint256",
          "name": "votesAgainst",
          "type": "uint256"
        }
      ],
      "stateMutability": "view",
      "type": "function"
    },
    {
      "inputs": [
        {
          "internalType": "uint256",
          "name": "_campaignId",
          "type": "uint256"
        }
      ],
      "name": "contribute",
      "outputs": [],
      "stateMutability": "payable",
      "type": "function"
    },
    {
      "inputs": [
        {
          "internalType": "string",
          "name": "_description",
          "type": "string"
        },
        {
          "internalType": "uint256",
          "name": "_fundingGoal",
          "type": "uint256"
        },
        {
          "internalType": "uint256",
          "name": "_deadline",
          "type": "uint256"
        }
      ],
      "name": "createCampaign",
      "outputs": [],
      "stateMutability": "nonpayable",
      "type": "function"
    },
    {
      "inputs": [
        {
          "internalType": "uint256",
          "name": "_campaignId",
          "type": "uint256"
        }
      ],
      "name": "finalizeCampaign",
      "outputs": [],
      "stateMutability": "nonpayable",
      "type": "function"
    },
    {
      "inputs": [],
      "name": "governanceToken",
      "outputs": [
        {
          "internalType": "contract GovernanceToken",
          "name": "",
          "type": "address"
        }
      ],
      "stateMutability": "view",
      "type": "function"
    },
    {
      "inputs": [],
      "name": "owner",
      "outputs": [
        {
          "internalType": "address",
          "name": "",
          "type": "address"
        }
      ],
      "stateMutability": "view",
      "type": "function"
    },
    {
      "inputs": [],
      "name": "renounceOwnership",
      "outputs": [],
      "stateMutability": "nonpayable",
      "type": "function"
    },
    {
      "inputs": [
        {
          "internalType": "uint256",
          "name": "_campaignId",
          "type": "uint256"
        },
        {
          "internalType": "address",
          "name": "_beneficiary",
          "type": "address"
        }
      ],
      "name": "setBeneficiary",
      "outputs": [],
      "stateMutability": "nonpayable",
      "type": "function"
    },
    {
      "inputs": [
        {
          "internalType": "address",
          "name": "newOwner",
          "type": "address"
        }
      ],
      "name": "transferOwnership",
      "outputs": [],
      "stateMutability": "nonpayable",
      "type": "function"
    },
    {
      "inputs": [
        {
          "internalType": "uint256",
          "name": "_campaignId",
          "type": "uint256"
        },
        {
          "internalType": "bool",
          "name": "_support",
          "type": "bool"
        }
      ],
      "name": "vote",
      "outputs": [],
      "stateMutability": "nonpayable",
      "type": "function"
    },
    {
      "inputs": [
        {
          "internalType": "uint256",
          "name": "_campaignId",
          "type": "uint256"
        }
      ],
      "name": "withdrawContribution",
      "outputs": [],
      "stateMutability": "nonpayable",
      "type": "function"
    },
    {
      "stateMutability": "payable",
      "type": "receive"
    }
  ],
  "bytecode": "0x60806040523480156200001157600080fd5b5060405162002a0b38038062002a0b833981810160405281019062000037919062000235565b33600073ffffffffffffffffffffffffffffffffffffffff168173ffffffffffffffffffffffffffffffffffffffff1603620000ad5760006040517f1e4fbdf7000000000000000000000000000000000000000000000000000000008152600401620000a4919062000278565b60405180910390fd5b620000be816200010760201b60201c565b5080600160006101000a81548173ffffffffffffffffffffffffffffffffffffffff021916908373ffffffffffffffffffffffffffffffffffffffff1602179055505062000295565b60008060009054906101000a900473ffffffffffffffffffffffffffffffffffffffff169050816000806101000a81548173ffffffffffffffffffffffffffffffffffffffff021916908373ffffffffffffffffffffffffffffffffffffffff1602179055508173ffffffffffffffffffffffffffffffffffffffff168173ffffffffffffffffffffffffffffffffffffffff167f8be0079c531659141344cd1fd0a4f28419497f9722a3daafe3b4186f6b6457e060405160405180910390a35050565b600080fd5b600073ffffffffffffffffffffffffffffffffffffffff82169050919050565b6000620001fd82620001d0565b9050919050565b6200020f81620001f0565b81146200021b57600080fd5b50565b6000815190506200022f8162000204565b92915050565b6000602082840312156200024e576200024d620001cb565b5b60006200025e848285016200021e565b91505092915050565b6200027281620001f0565b82525050565b60006020820190506200028f600083018462000267565b92915050565b61276680620002a56000396000f3fe6080604052600436106100a05760003560e01c80638da5cb5b116100645780638da5cb5b14610183578063c1cbbca7146101ae578063c9d27afe146101ca578063d25090ff146101f3578063f2fde38b1461021c578063f96dae0a14610245576100a7565b8063141961bc146100ac5780631c846d59146100f15780633020580b1461011a5780636b5ca27d14610143578063715018a61461016c576100a7565b366100a757005b600080fd5b3480156100b857600080fd5b506100d360048036038101906100ce9190611607565b610270565b6040516100e899989796959493929190611714565b60405180910390f35b3480156100fd57600080fd5b50610118600480360381019061011391906117d4565b610396565b005b34801561012657600080fd5b50610141600480360381019061013c9190611949565b610572565b005b34801561014f57600080fd5b5061016a60048036038101906101659190611607565b6106f1565b005b34801561017857600080fd5b50610181610afa565b005b34801561018f57600080fd5b50610198610b0e565b6040516101a591906119b8565b60405180910390f35b6101c860048036038101906101c39190611607565b610b37565b005b3480156101d657600080fd5b506101f160048036038101906101ec9190611a0b565b610d03565b005b3480156101ff57600080fd5b5061021a60048036038101906102159190611607565b611068565b005b34801561022857600080fd5b50610243600480360381019061023e9190611a4b565b6113be565b005b34801561025157600080fd5b5061025a611444565b6040516102679190611ad7565b60405180910390f35b6002818154811061028057600080fd5b90600052602060002090600b02016000915090508060000160009054906101000a900473ffffffffffffffffffffffffffffffffffffffff16908060010180546102c990611b21565b80601f01602080910402602001604051908101604052809291908181526020018280546102f590611b21565b80156103425780601f1061031757610100808354040283529160200191610342565b820191906000526020600020905b81548152906001019060200180831161032557829003601f168201915b5050505050908060020154908060030154908060040154908060050160009054906101000a900473ffffffffffffffffffffffffffffffffffffffff169080600601549080600901549080600a0154905089565b8160028054905081106103de576040517f08c379a00000000000000000000000000000000000000000000000000000000081526004016103d590611b9e565b60405180910390fd5b6000600284815481106103f4576103f3611bbe565b5b90600052602060002090600b020190508060000160009054906101000a900473ffffffffffffffffffffffffffffffffffffffff1673ffffffffffffffffffffffffffffffffffffffff163373ffffffffffffffffffffffffffffffffffffffff1614610496576040517f08c379a000000000000000000000000000000000000000000000000000000000815260040161048d90611c5f565b60405180910390fd5b600073ffffffffffffffffffffffffffffffffffffffff168160050160009054906101000a900473ffffffffffffffffffffffffffffffffffffffff1673ffffffffffffffffffffffffffffffffffffffff1614610529576040517f08c379a000000000000000000000000000000000000000000000000000000000815260040161052090611ccb565b60405180910390fd5b828160050160006101000a81548173ffffffffffffffffffffffffffffffffffffffff021916908373ffffffffffffffffffffffffffffffffffffffff16021790555050505050565b4281116105b4576040517f08c379a00000000000000000000000000000000000000000000000000000000081526004016105ab90611d5d565b60405180910390fd5b600082116105f7576040517f08c379a00000000000000000000000000000000000000000000000000000000081526004016105ee90611def565b60405180910390fd5b6000600280549050905060026001816001815401808255809150500390600052602060002090505060006002828154811061063557610634611bbe565b5b90600052602060002090600b02019050338160000160006101000a81548173ffffffffffffffffffffffffffffffffffffffff021916908373ffffffffffffffffffffffffffffffffffffffff160217905550848160010190816106999190611fb1565b50838160020181905550828160030181905550817fdc26653af5b99b2da33e2ad69ee6600d9aeccc82b034501db4338309615ca238338787876040516106e29493929190612083565b60405180910390a25050505050565b806002805490508110610739576040517f08c379a000000000000000000000000000000000000000000000000000000000815260040161073090611b9e565b60405180910390fd5b816002818154811061074e5761074d611bbe565b5b90600052602060002090600b0201600301544210156107a2576040517f08c379a00000000000000000000000000000000000000000000000000000000081526004016107999061211b565b60405180910390fd5b6000600284815481106107b8576107b7611bbe565b5b90600052602060002090600b02019050600081600601541461080f576040517f08c379a000000000000000000000000000000000000000000000000000000000815260040161080690612187565b60405180910390fd5b600073ffffffffffffffffffffffffffffffffffffffff168160050160009054906101000a900473ffffffffffffffffffffffffffffffffffffffff1673ffffffffffffffffffffffffffffffffffffffff16036108a2576040517f08c379a0000000000000000000000000000000000000000000000000000000008152600401610899906121f3565b60405180910390fd5b6000600160009054906101000a900473ffffffffffffffffffffffffffffffffffffffff1673ffffffffffffffffffffffffffffffffffffffff166318160ddd6040518163ffffffff1660e01b8152600401602060405180830381865afa158015610911573d6000803e3d6000fd5b505050506040513d601f19601f820116820180604052508101906109359190612228565b600283600901546109469190612284565b1015801561095c575081600a0154826009015410155b8061096f57508160020154826004015410155b90508015610ab15760008260040154905060008360050160009054906101000a900473ffffffffffffffffffffffffffffffffffffffff1673ffffffffffffffffffffffffffffffffffffffff16826040516109ca906122f7565b60006040518083038185875af1925050503d8060008114610a07576040519150601f19603f3d011682016040523d82523d6000602084013e610a0c565b606091505b5050905080610a50576040517f08c379a0000000000000000000000000000000000000000000000000000000008152600401610a4790612358565b60405180910390fd5b867fcf7d23a3cbe4e8b36ff82fd1b05b1b17373dc7804b4ebbd6e2356716ef2023728560050160009054906101000a900473ffffffffffffffffffffffffffffffffffffffff1684604051610aa6929190612378565b60405180910390a250505b60018260060181905550847f153ed4c9c4475018e4899faf78c3171cc7869a9c53a2d247de2ff74377eba78882604051610aeb91906123b0565b60405180910390a25050505050565b610b0261146a565b610b0c60006114f1565b565b60008060009054906101000a900473ffffffffffffffffffffffffffffffffffffffff16905090565b806002805490508110610b7f576040517f08c379a0000000000000000000000000000000000000000000000000000000008152600401610b7690611b9e565b60405180910390fd5b8160028181548110610b9457610b93611bbe565b5b90600052602060002090600b0201600301544210610be7576040517f08c379a0000000000000000000000000000000000000000000000000000000008152600401610bde90612417565b60405180910390fd5b60003411610c2a576040517f08c379a0000000000000000000000000000000000000000000000000000000008152600401610c21906124a9565b60405180910390fd5b600060028481548110610c4057610c3f611bbe565b5b90600052602060002090600b02019050348160070160003373ffffffffffffffffffffffffffffffffffffffff1673ffffffffffffffffffffffffffffffffffffffff1681526020019081526020016000206000828254610ca191906124c9565b9250508190555034816004016000828254610cbc91906124c9565b92505081905550837fb2ed2e021651f85a4754a44651fc09ac5141bc0329ce4dfe8dd712a5d04a8b393334604051610cf5929190612378565b60405180910390a250505050565b81600060028281548110610d1a57610d19611bbe565b5b90600052602060002090600b020160070160003373ffffffffffffffffffffffffffffffffffffffff1673ffffffffffffffffffffffffffffffffffffffff1681526020019081526020016000205411610da9576040517f08c379a0000000000000000000000000000000000000000000000000000000008152600401610da090612549565b60405180910390fd5b8260028181548110610dbe57610dbd611bbe565b5b90600052602060002090600b020160080160003373ffffffffffffffffffffffffffffffffffffffff1673ffffffffffffffffffffffffffffffffffffffff16815260200190815260200160002060009054906101000a900460ff1615610e5a576040517f08c379a0000000000000000000000000000000000000000000000000000000008152600401610e51906125b5565b60405180910390fd5b8360028181548110610e6f57610e6e611bbe565b5b90600052602060002090600b020160030154421015610ec3576040517f08c379a0000000000000000000000000000000000000000000000000000000008152600401610eba9061211b565b60405180910390fd5b600060028681548110610ed957610ed8611bbe565b5b90600052602060002090600b020190506000600160009054906101000a900473ffffffffffffffffffffffffffffffffffffffff1673ffffffffffffffffffffffffffffffffffffffff16639ab24eb0336040518263ffffffff1660e01b8152600401610f4691906119b8565b602060405180830381865afa158015610f63573d6000803e3d6000fd5b505050506040513d601f19601f82011682018060405250810190610f879190612228565b90508515610faf5780826009016000828254610fa391906124c9565b92505081905550610fcb565b8082600a016000828254610fc391906124c9565b925050819055505b60018260080160003373ffffffffffffffffffffffffffffffffffffffff1673ffffffffffffffffffffffffffffffffffffffff16815260200190815260200160002060006101000a81548160ff021916908315150217905550867ff2913dbe661ee2acc4a046d8fbcdc792373bda34c41c6086484b5345e5785e5f33886040516110579291906125d5565b60405180910390a250505050505050565b8060028054905081106110b0576040517f08c379a00000000000000000000000000000000000000000000000000000000081526004016110a790611b9e565b60405180910390fd5b81600281815481106110c5576110c4611bbe565b5b90600052602060002090600b0201600301544210611118576040517f08c379a000000000000000000000000000000000000000000000000000000000815260040161110f90612417565b60405180910390fd5b8260006002828154811061112f5761112e611bbe565b5b90600052602060002090600b020160070160003373ffffffffffffffffffffffffffffffffffffffff1673ffffffffffffffffffffffffffffffffffffffff16815260200190815260200160002054116111be576040517f08c379a00000000000000000000000000000000000000000000000000000000081526004016111b590612549565b60405180910390fd5b6000600285815481106111d4576111d3611bbe565b5b90600052602060002090600b0201905060008160070160003373ffffffffffffffffffffffffffffffffffffffff1673ffffffffffffffffffffffffffffffffffffffff1681526020019081526020016000205490506000811161126d576040517f08c379a00000000000000000000000000000000000000000000000000000000081526004016112649061264a565b60405180910390fd5b60008260070160003373ffffffffffffffffffffffffffffffffffffffff1673ffffffffffffffffffffffffffffffffffffffff16815260200190815260200160002081905550808260040160008282546112c8919061266a565b9250508190555060003373ffffffffffffffffffffffffffffffffffffffff16826040516112f5906122f7565b60006040518083038185875af1925050503d8060008114611332576040519150601f19603f3d011682016040523d82523d6000602084013e611337565b606091505b505090508061137b576040517f08c379a000000000000000000000000000000000000000000000000000000000815260040161137290612710565b60405180910390fd5b867fb2ed2e021651f85a4754a44651fc09ac5141bc0329ce4dfe8dd712a5d04a8b3933846040516113ad929190612378565b60405180910390a250505050505050565b6113c661146a565b600073ffffffffffffffffffffffffffffffffffffffff168173ffffffffffffffffffffffffffffffffffffffff16036114385760006040517f1e4fbdf700000000000000000000000000000000000000000000000000000000815260040161142f91906119b8565b60405180910390fd5b611441816114f1565b50565b600160009054906101000a900473ffffffffffffffffffffffffffffffffffffffff1681565b6114726115b5565b73ffffffffffffffffffffffffffffffffffffffff16611490610b0e565b73ffffffffffffffffffffffffffffffffffffffff16146114ef576114b36115b5565b6040517f118cdaa70000000000000000000000000000000000000000000000000000000081526004016114e691906119b8565b60405180910390fd5b565b60008060009054906101000a900473ffffffffffffffffffffffffffffffffffffffff169050816000806101000a81548173ffffffffffffffffffffffffffffffffffffffff021916908373ffffffffffffffffffffffffffffffffffffffff1602179055508173ffffffffffffffffffffffffffffffffffffffff168173ffffffffffffffffffffffffffffffffffffffff167f8be0079c531659141344cd1fd0a4f28419497f9722a3daafe3b4186f6b6457e060405160405180910390a35050565b600033905090565b6000604051905090565b600080fd5b600080fd5b6000819050919050565b6115e4816115d1565b81146115ef57600080fd5b50565b600081359050611601816115db565b92915050565b60006020828403121561161d5761161c6115c7565b5b600061162b848285016115f2565b91505092915050565b600073ffffffffffffffffffffffffffffffffffffffff82169050919050565b600061165f82611634565b9050919050565b61166f81611654565b82525050565b600081519050919050565b600082825260208201905092915050565b60005b838110156116af578082015181840152602081019050611694565b60008484015250505050565b6000601f19601f8301169050919050565b60006116d782611675565b6116e18185611680565b93506116f1818560208601611691565b6116fa816116bb565b840191505092915050565b61170e816115d1565b82525050565b60006101208201905061172a600083018c611666565b818103602083015261173c818b6116cc565b905061174b604083018a611705565b6117586060830189611705565b6117656080830188611705565b61177260a0830187611666565b61177f60c0830186611705565b61178c60e0830185611705565b61179a610100830184611705565b9a9950505050505050505050565b6117b181611654565b81146117bc57600080fd5b50565b6000813590506117ce816117a8565b92915050565b600080604083850312156117eb576117ea6115c7565b5b60006117f9858286016115f2565b925050602061180a858286016117bf565b9150509250929050565b600080fd5b600080fd5b7f4e487b7100000000000000000000000000000000000000000000000000000000600052604160045260246000fd5b611856826116bb565b810181811067ffffffffffffffff821117156118755761187461181e565b5b80604052505050565b60006118886115bd565b9050611894828261184d565b919050565b600067ffffffffffffffff8211156118b4576118b361181e565b5b6118bd826116bb565b9050602081019050919050565b82818337600083830152505050565b60006118ec6118e784611899565b61187e565b90508281526020810184848401111561190857611907611819565b5b6119138482856118ca565b509392505050565b600082601f8301126119305761192f611814565b5b81356119408482602086016118d9565b91505092915050565b600080600060608486031215611962576119616115c7565b5b600084013567ffffffffffffffff8111156119805761197f6115cc565b5b61198c8682870161191b565b935050602061199d868287016115f2565b92505060406119ae868287016115f2565b9150509250925092565b60006020820190506119cd6000830184611666565b92915050565b60008115159050919050565b6119e8816119d3565b81146119f357600080fd5b50565b600081359050611a05816119df565b92915050565b60008060408385031215611a2257611a216115c7565b5b6000611a30858286016115f2565b9250506020611a41858286016119f6565b9150509250929050565b600060208284031215611a6157611a606115c7565b5b6000611a6f848285016117bf565b91505092915050565b6000819050919050565b6000611a9d611a98611a9384611634565b611a78565b611634565b9050919050565b6000611aaf82611a82565b9050919050565b6000611ac182611aa4565b9050919050565b611ad181611ab6565b82525050565b6000602082019050611aec6000830184611ac8565b92915050565b7f4e487b7100000000000000000000000000000000000000000000000000000000600052602260045260246000fd5b60006002820490506001821680611b3957607f821691505b602082108103611b4c57611b4b611af2565b5b50919050565b7f44414f3a2043616d706169676e20646f6573206e6f7420657869737400000000600082015250565b6000611b88601c83611680565b9150611b9382611b52565b602082019050919050565b60006020820190508181036000830152611bb781611b7b565b9050919050565b7f4e487b7100000000000000000000000000000000000000000000000000000000600052603260045260246000fd5b7f44414f3a204f6e6c79207468652063616d706169676e2043726561746f72206360008201527f616e207365742062656e65666963696172790000000000000000000000000000602082015250565b6000611c49603283611680565b9150611c5482611bed565b604082019050919050565b60006020820190508181036000830152611c7881611c3c565b9050919050565b7f44414f3a2042656e656669636961727920616c72656164792073657400000000600082015250565b6000611cb5601c83611680565b9150611cc082611c7f565b602082019050919050565b60006020820190508181036000830152611ce481611ca8565b9050919050565b7f44414f3a20446561646c696e65206d75737420626520696e207468652066757460008201527f7572650000000000000000000000000000000000000000000000000000000000602082015250565b6000611d47602383611680565b9150611d5282611ceb565b604082019050919050565b60006020820190508181036000830152611d7681611d3a565b9050919050565b7f44414f3a2046756e64696e6720676f616c206d7573742062652067726561746560008201527f72207468616e207a65726f000000000000000000000000000000000000000000602082015250565b6000611dd9602b83611680565b9150611de482611d7d565b604082019050919050565b60006020820190508181036000830152611e0881611dcc565b9050919050565b60008190508160005260206000209050919050565b60006020601f8301049050919050565b600082821b905092915050565b600060088302611e717fffffffffffffffffffffffffffffffffffffffffffffffffffffffffffffffff82611e34565b611e7b8683611e34565b95508019841693508086168417925050509392505050565b6000611eae611ea9611ea4846115d1565b611a78565b6115d1565b9050919050565b6000819050919050565b611ec883611e93565b611edc611ed482611eb5565b848454611e41565b825550505050565b600090565b611ef1611ee4565b611efc818484611ebf565b505050565b5b81811015611f2057611f15600082611ee9565b600181019050611f02565b5050565b601f821115611f6557611f3681611e0f565b611f3f84611e24565b81016020851015611f4e578190505b611f62611f5a85611e24565b830182611f01565b50505b505050565b600082821c905092915050565b6000611f8860001984600802611f6a565b1980831691505092915050565b6000611fa18383611f77565b9150826002028217905092915050565b611fba82611675565b67ffffffffffffffff811115611fd357611fd261181e565b5b611fdd8254611b21565b611fe8828285611f24565b600060209050601f83116001811461201b5760008415612009578287015190505b6120138582611f95565b86555061207b565b601f19841661202986611e0f565b60005b828110156120515784890151825560018201915060208501945060208101905061202c565b8683101561206e578489015161206a601f891682611f77565b8355505b6001600288020188555050505b505050505050565b60006080820190506120986000830187611666565b81810360208301526120aa81866116cc565b90506120b96040830185611705565b6120c66060830184611705565b95945050505050565b7f44414f3a2043616d706169676e206973207374696c6c206f70656e0000000000600082015250565b6000612105601b83611680565b9150612110826120cf565b602082019050919050565b60006020820190508181036000830152612134816120f8565b9050919050565b7f44414f3a2043616d706169676e20616c72656164792066696e616c697a656400600082015250565b6000612171601f83611680565b915061217c8261213b565b602082019050919050565b600060208201905081810360008301526121a081612164565b9050919050565b7f44414f3a2042656e6566696369617279206e6f74207365740000000000000000600082015250565b60006121dd601883611680565b91506121e8826121a7565b602082019050919050565b6000602082019050818103600083015261220c816121d0565b9050919050565b600081519050612222816115db565b92915050565b60006020828403121561223e5761223d6115c7565b5b600061224c84828501612213565b91505092915050565b7f4e487b7100000000000000000000000000000000000000000000000000000000600052601160045260246000fd5b600061228f826115d1565b915061229a836115d1565b92508282026122a8816115d1565b915082820484148315176122bf576122be612255565b5b5092915050565b600081905092915050565b50565b60006122e16000836122c6565b91506122ec826122d1565b600082019050919050565b6000612302826122d4565b9150819050919050565b7f44414f3a204661696c656420746f2073656e642066756e647300000000000000600082015250565b6000612342601983611680565b915061234d8261230c565b602082019050919050565b6000602082019050818103600083015261237181612335565b9050919050565b600060408201905061238d6000830185611666565b61239a6020830184611705565b9392505050565b6123aa816119d3565b82525050565b60006020820190506123c560008301846123a1565b92915050565b7f44414f3a2043616d706169676e2068617320656e646564000000000000000000600082015250565b6000612401601783611680565b915061240c826123cb565b602082019050919050565b60006020820190508181036000830152612430816123f4565b9050919050565b7f44414f3a20436f6e747269627574696f6e206d7573742062652067726561746560008201527f72207468616e207a65726f000000000000000000000000000000000000000000602082015250565b6000612493602b83611680565b915061249e82612437565b604082019050919050565b600060208201905081810360008301526124c281612486565b9050919050565b60006124d4826115d1565b91506124df836115d1565b92508282019050808211156124f7576124f6612255565b5b92915050565b7f44414f3a204e6f20636f6e747269627574696f6e206d61646500000000000000600082015250565b6000612533601983611680565b915061253e826124fd565b602082019050919050565b6000602082019050818103600083015261256281612526565b9050919050565b7f44414f3a20566f7465722068617320616c726561647920766f74656400000000600082015250565b600061259f601c83611680565b91506125aa82612569565b602082019050919050565b600060208201905081810360008301526125ce81612592565b9050919050565b60006040820190506125ea6000830185611666565b6125f760208301846123a1565b9392505050565b7f44414f3a204e6f20636f6e747269627574696f6e20746f207769746864726177600082015250565b6000612634602083611680565b915061263f826125fe565b602082019050919050565b6000602082019050818103600083015261266381612627565b9050919050565b6000612675826115d1565b9150612680836115d1565b925082820390508181111561269857612697612255565b5b92915050565b7f44414f3a204661696c656420746f20776974686472617720636f6e747269627560008201527f74696f6e00000000000000000000000000000000000000000000000000000000602082015250565b60006126fa602483611680565b91506127058261269e565b604082019050919050565b60006020820190508181036000830152612729816126ed565b905091905056fea26469706673582212206b43c210f9f82218b06c38156122f4f3c311e21ab36d9a1ba8b034af003e743464736f6c63430008140033",
  "linkReferences": {},
  "deployedLinkReferences": {}
}